:100000000C9434000C9451000C9451000C94510049
:100010000C9451000C9451000C9451000C9451001C
:100020000C9451000C9451000C9451000C94AD00B0
:100030000C9451000C9451000C9451000C945100FC
:100040000C9474000C9451000C9451000C945100C9
:100050000C9451000C9451000C9451000C945100DC
:100060000C9451000C94510011241FBECFEFD8E026
:10007000DEBFCDBF11E0A0E0B1E0EAE3F2E002C0F4
:1000800005900D92A035B107D9F721E0A0E5B1E0C8
:1000900001C01D92A435B207E1F70E94E5000C945F
:1000A0001B010C9400008AB180628AB983E284BD8E
:1000B0008BE085BD85E087BDE0915301F0E0E05F16
:1000C000FE4F808188BD81E080936E0008958DE0B1
:1000D0008093810080E29EE4909389008093880061
:1000E00082E080936F0008951F920F920FB60F92D7
:1000F00011245F936F937F938F939F93AF93BF93DD
:10010000EF93FF938091530190E001968F73907865
:10011000992324F40197806C9F6F0196809353017B
:10012000E0915301F0E0E05FFE4F808197B5899F39
:10013000C001112464E670E00E94F30068BDFF91E5
:10014000EF91BF91AF919F918F917F916F915F914F
:100150000F900FBE0F901F9018951F920F920FB621
:100160000F9211248F93EF93FF9380915001882376
:10017000F1F0809152018031B0F4E0915201F0E051
:10018000E050FF4F8081809351018091510188237D
:1001900011F088EC01C083E287BD809152018F5F2E
:1001A0008093520104C01092500185E087BDFF91F9
:1001B000EF918F910F900FBE0F901F901895109296
:1001C000520181E08093500108950E9453000E94E3
:1001D000670078948FE99FE00197F1F700C0000075
:1001E0000E94DF00FFCF97FB072E16F4009407D084
:1001F00077FD09D00E94070107FC05D03EF49095D9
:1002000081959F4F0895709561957F4F0895AA1B22
:10021000BB1B51E107C0AA1FBB1FA617B70710F0F1
:10022000A61BB70B881F991F5A95A9F78095909523
:0A023000BC01CD010895F894FFCF42
:10023A0001000100010001000100010001000100AC
:10024A0032363B4045494D5155585B5E60616363A8
:10025A0064636361605E5B5855514D4945403B3666
:10026A00322D28231E1A16120E0B0805030200004F
:10027A00000000020305080B0E12161A1E23282D71
:00000001FF
