S01800007472616E736D697373696F6E5F6172722E737265633E
S11300000C9434000C9451000C9451000C94510045
S11300100C9451000C9451000C9451000C94510018
S11300200C9451000C9451000C9451000C94510008
S11300300C9451000C9451000C9451000C945100F8
S11300400C9467000C9451000C9451000C945100D2
S11300500C9451000C9451000C9451000C945100D8
S11300600C9451000C94510011241FBECFEFD8E022
S1130070DEBFCDBF11E0A0E0B1E0E0EAF1E002C0F4
S113008005900D92A034B107D9F721E0A0E4B1E0C6
S113009001C01D92A134B207E1F70E94A2000C94A2
S11300A0CE000C9400008AB180628AB983E284BDD8
S11300B08BE085BD82E387BDE0914001F0E0E05034
S11300C0FF4F808188BD81E080936E0008951F9268
S11300D00F920FB60F9211242F935F936F937F9318
S11300E08F939F93AF93BF93EF93FF9380914001BE
S11300F090E001968F739078992324F40197806C93
S11301009F6F019680934001E0914001F0E0E05040
S1130110FF4F808122E3829FC001112464E670E0D6
S11301200E94A60068BDFF91EF91BF91AF919F918E
S11301308F917F916F915F912F910F900FBE0F90D0
S11301401F9018950E9453007894FFCF97FB072EB9
S113015016F4009407D077FD09D00E94BA0007FC7A
S113016005D03EF4909581959F4F089570956195C3
S11301707F4F0895AA1BBB1B51E107C0AA1FBB1FD9
S1130180A617B70710F0A61BB70B881F991F5A951F
S1130190A9F780959095BC01CD010895F894FFCFFF
S11301A032363B4045494D5155585B5E606163634F
S11301B064636361605E5B5855514D4945403B360D
S11301C0322D28231E1A16120E0B080503020000F6
S11301D0000000020305080B0E12161A1E23282D18
S9030000FC
